{"abi":[{"type":"constructor","inputs":[{"name":"_platform","type":"address","internalType":"address"},{"name":"_platformFee","type":"uint256","internalType":"uint256"}],"stateMutability":"nonpayable"},{"type":"fallback","stateMutability":"payable"},{"type":"receive","stateMutability":"payable"},{"type":"function","name":"confirmDelivery","inputs":[{"name":"dealId","type":"uint256","internalType":"uint256"}],"outputs":[],"stateMutability":"nonpayable"},{"type":"function","name":"createDeal","inputs":[{"name":"seller","type":"address","internalType":"address"},{"name":"amount","type":"uint256","internalType":"uint256"}],"outputs":[{"name":"dealId","type":"uint256","internalType":"uint256"}],"stateMutability":"nonpayable"},{"type":"function","name":"dealCounter","inputs":[],"outputs":[{"name":"","type":"uint256","internalType":"uint256"}],"stateMutability":"view"},{"type":"function","name":"deals","inputs":[{"name":"","type":"uint256","internalType":"uint256"}],"outputs":[{"name":"buyer","type":"address","internalType":"address"},{"name":"seller","type":"address","internalType":"address"},{"name":"amount","type":"uint256","internalType":"uint256"},{"name":"status","type":"uint8","internalType":"enum Escrow.Status"}],"stateMutability":"view"},{"type":"function","name":"deposit","inputs":[{"name":"dealId","type":"uint256","internalType":"uint256"}],"outputs":[],"stateMutability":"payable"},{"type":"function","name":"getDeal","inputs":[{"name":"dealId","type":"uint256","internalType":"uint256"}],"outputs":[{"name":"buyer","type":"address","internalType":"address"},{"name":"seller","type":"address","internalType":"address"},{"name":"amount","type":"uint256","internalType":"uint256"},{"name":"status","type":"uint8","internalType":"enum Escrow.Status"}],"stateMutability":"view"},{"type":"function","name":"getDealStatus","inputs":[{"name":"dealId","type":"uint256","internalType":"uint256"}],"outputs":[{"name":"","type":"uint8","internalType":"enum Escrow.Status"}],"stateMutability":"view"},{"type":"function","name":"platform","inputs":[],"outputs":[{"name":"","type":"address","internalType":"address"}],"stateMutability":"view"},{"type":"function","name":"platformBalance","inputs":[],"outputs":[{"name":"","type":"uint256","internalType":"uint256"}],"stateMutability":"view"},{"type":"function","name":"platformFee","inputs":[],"outputs":[{"name":"","type":"uint256","internalType":"uint256"}],"stateMutability":"view"},{"type":"function","name":"refund","inputs":[{"name":"dealId","type":"uint256","internalType":"uint256"}],"outputs":[],"stateMutability":"nonpayable"},{"type":"function","name":"updatePlatformFee","inputs":[{"name":"_platformFee","type":"uint256","internalType":"uint256"}],"outputs":[],"stateMutability":"nonpayable"},{"type":"function","name":"withdrawPlatformFees","inputs":[],"outputs":[],"stateMutability":"nonpayable"},{"type":"event","name":"DealCreated","inputs":[{"name":"dealId","type":"uint256","indexed":true,"internalType":"uint256"},{"name":"buyer","type":"address","indexed":true,"internalType":"address"},{"name":"seller","type":"address","indexed":true,"internalType":"address"},{"name":"amount","type":"uint256","indexed":false,"internalType":"uint256"}],"anonymous":false},{"type":"event","name":"Deposited","inputs":[{"name":"dealId","type":"uint256","indexed":true,"internalType":"uint256"},{"name":"buyer","type":"address","indexed":true,"internalType":"address"},{"name":"amount","type":"uint256","indexed":false,"internalType":"uint256"}],"anonymous":false},{"type":"event","name":"Refunded","inputs":[{"name":"dealId","type":"uint256","indexed":true,"internalType":"uint256"},{"name":"buyer","type":"address","indexed":true,"internalType":"address"},{"name":"amount","type":"uint256","indexed":false,"internalType":"uint256"}],"anonymous":false},{"type":"event","name":"Released","inputs":[{"name":"dealId","type":"uint256","indexed":true,"internalType":"uint256"},{"name":"seller","type":"address","indexed":true,"internalType":"address"},{"name":"sellerAmount","type":"uint256","indexed":false,"internalType":"uint256"},{"name":"platformFee","type":"uint256","indexed":false,"internalType":"uint256"}],"anonymous":false},{"type":"error","name":"AlreadyDeposited","inputs":[]},{"type":"error","name":"DealNotFound","inputs":[]},{"type":"error","name":"InsufficientPayment","inputs":[]},{"type":"error","name":"InvalidAddress","inputs":[]},{"type":"error","name":"InvalidAmount","inputs":[]},{"type":"error","name":"InvalidStatus","inputs":[]},{"type":"error","name":"ReentrancyGuardReentrantCall","inputs":[]},{"type":"error","name":"TransferFailed","inputs":[]},{"type":"error","name":"UnauthorizedAction","inputs":[]}],"bytecode":{"object":"0x608060405234801561000f575f5ffd5b50604051610e08380380610e0883398101604081905261002e916100c5565b60017f9b779b17422d0df92223018b32b4d1fa46e071723d6817e2486d003becc55f00556001600160a01b0382166100795760405163e6c4247b60e01b815260040160405180910390fd5b612710811061009b5760405163162908e360e11b815260040160405180910390fd5b5f80546001600160a01b0319166001600160a01b03939093169290921782556001556002556100fc565b5f5f604083850312156100d6575f5ffd5b82516001600160a01b03811681146100ec575f5ffd5b6020939093015192949293505050565b610cff806101095f395ff3fe6080604052600436106100c5575f3560e01c806382fd5bac1161007e578063c698f53b11610058578063c698f53b146102b4578063d0b7830b146102e0578063f4784c2d146102f4578063fd84cb971461031357610117565b806382fd5bac14610263578063aa0b598814610282578063b6b55f25146102a157610117565b806303988f8414610154578063217328b6146101bf57806326232a2e146101e2578063278ecde1146101f75780634bde38c81461021857806362a5dbbc1461024e57610117565b366101175760405162461bcd60e51b815260206004820181905260248201527f44697265637420455448207472616e7366657273206e6f7420616c6c6f77656460448201526064015b60405180910390fd5b60405162461bcd60e51b8152602060048201526012602482015271119d5b98dd1a5bdb881b9bdd08199bdd5b9960721b604482015260640161010e565b34801561015f575f5ffd5b506101a661016e366004610b58565b600360208190525f918252604090912080546001820154600283015492909301546001600160a01b0391821693909116919060ff1684565b6040516101b69493929190610ba3565b60405180910390f35b3480156101ca575f5ffd5b506101d460025481565b6040519081526020016101b6565b3480156101ed575f5ffd5b506101d460015481565b348015610202575f5ffd5b50610216610211366004610b58565b610332565b005b348015610223575f5ffd5b505f54610236906001600160a01b031681565b6040516001600160a01b0390911681526020016101b6565b348015610259575f5ffd5b506101d460045481565b34801561026e575f5ffd5b506101a661027d366004610b58565b6104c4565b34801561028d575f5ffd5b5061021661029c366004610b58565b610528565b6102166102af366004610b58565b610579565b3480156102bf575f5ffd5b506102d36102ce366004610b58565b610695565b6040516101b69190610bd8565b3480156102eb575f5ffd5b506102166106d3565b3480156102ff575f5ffd5b506101d461030e366004610bec565b6107b9565b34801561031e575f5ffd5b5061021661032d366004610b58565b61092d565b61033a610b0e565b80600254811061035d5760405163223da47360e21b815260040160405180910390fd5b5f8281526003602052604090205482906001600160a01b031633146103955760405163421c007d60e11b815260040160405180910390fd5b5f838152600360205260409020600160038083015460ff16908111156103bd576103bd610b6f565b146103db576040516307a92f1960e51b815260040160405180910390fd5b6003818101805460ff19169091179055805460028201546040515f926001600160a01b031691908381818185875af1925050503d805f8114610438576040519150601f19603f3d011682016040523d82523d5f602084013e61043d565b606091505b505090508061045f576040516312171d8360e31b815260040160405180910390fd5b815460028301546040519081526001600160a01b039091169086907f7ca5472b7ea78c2c0141c5a12ee6d170cf4ce8ed06be3d22c8252ddfc7a6a2c49060200160405180910390a3505050506104c160015f516020610caa5f395f51905f5255565b50565b5f5f5f5f8460025481106104eb5760405163223da47360e21b815260040160405180910390fd5b5050505f928352505060036020819052604090912080546001820154600283015492909301546001600160a01b0391821694919093169260ff1690565b5f546001600160a01b031633146105525760405163421c007d60e11b815260040160405180910390fd5b61271081106105745760405163162908e360e11b815260040160405180910390fd5b600155565b610581610b0e565b8060025481106105a45760405163223da47360e21b815260040160405180910390fd5b5f8281526003602052604081209060038083015460ff16908111156105cb576105cb610b6f565b146105e9576040516307a92f1960e51b815260040160405180910390fd5b8060020154341461060d5760405163cd1c886760e01b815260040160405180910390fd5b80546001600160a01b031633146106375760405163421c007d60e11b815260040160405180910390fd5b60038101805460ff19166001179055604051348152339084907f1599c0fcf897af5babc2bfcf707f5dc050f841b044d97c3251ecec35b9abf80b9060200160405180910390a350506104c160015f516020610caa5f395f51905f5255565b5f8160025481106106b95760405163223da47360e21b815260040160405180910390fd5b50505f908152600360208190526040909120015460ff1690565b6106db610b0e565b5f546001600160a01b031633146107055760405163421c007d60e11b815260040160405180910390fd5b6004545f8190036107295760405163162908e360e11b815260040160405180910390fd5b5f600481905580546040516001600160a01b039091169083908381818185875af1925050503d805f8114610778576040519150601f19603f3d011682016040523d82523d5f602084013e61077d565b606091505b505090508061079f576040516312171d8360e31b815260040160405180910390fd5b50506107b760015f516020610caa5f395f51905f5255565b565b5f6001600160a01b0383166107e15760405163e6c4247b60e01b815260040160405180910390fd5b336001600160a01b0384160361080a5760405163e6c4247b60e01b815260040160405180910390fd5b815f0361082a5760405163162908e360e11b815260040160405180910390fd5b60028054905f61083983610c35565b90915550604080516080810182523381526001600160a01b0386166020820152908101849052909150606081015f90525f82815260036020818152604092839020845181546001600160a01b039182166001600160a01b031991821617835592860151600180840180549290931691909416179055928401516002840155606084015183830180549193909260ff19909216919084908111156108de576108de610b6f565b0217905550506040518381526001600160a01b0385169150339083907fa1d51600bc538356bf8fd92c062edd8551d8ebffa6933a434365fbb0b2b6eb489060200160405180910390a492915050565b610935610b0e565b8060025481106109585760405163223da47360e21b815260040160405180910390fd5b5f8281526003602052604090205482906001600160a01b031633146109905760405163421c007d60e11b815260040160405180910390fd5b5f838152600360205260409020600160038083015460ff16908111156109b8576109b8610b6f565b146109d6576040516307a92f1960e51b815260040160405180910390fd5b5f61271060015483600201546109ec9190610c4d565b6109f69190610c64565b90505f818360020154610a099190610c83565b60038401805460ff191660021790556004805491925083915f90610a2e908490610c96565b909155505060018301546040515f916001600160a01b03169083908381818185875af1925050503d805f8114610a7f576040519150601f19603f3d011682016040523d82523d5f602084013e610a84565b606091505b5050905080610aa6576040516312171d8360e31b815260040160405180910390fd5b600184015460408051848152602081018690526001600160a01b039092169189917ff86dbbaae73a38eba376327ec68def0678d91d952b4a18aa86d880f199632bd9910160405180910390a35050505050506104c160015f516020610caa5f395f51905f5255565b610b16610b29565b60025f516020610caa5f395f51905f5255565b5f516020610caa5f395f51905f52546002036107b757604051633ee5aeb560e01b815260040160405180910390fd5b5f60208284031215610b68575f5ffd5b5035919050565b634e487b7160e01b5f52602160045260245ffd5b60048110610b9f57634e487b7160e01b5f52602160045260245ffd5b9052565b6001600160a01b038581168252841660208201526040810183905260808101610bcf6060830184610b83565b95945050505050565b60208101610be68284610b83565b92915050565b5f5f60408385031215610bfd575f5ffd5b82356001600160a01b0381168114610c13575f5ffd5b946020939093013593505050565b634e487b7160e01b5f52601160045260245ffd5b5f60018201610c4657610c46610c21565b5060010190565b8082028115828204841417610be657610be6610c21565b5f82610c7e57634e487b7160e01b5f52601260045260245ffd5b500490565b81810381811115610be657610be6610c21565b80820180821115610be657610be6610c2156fe9b779b17422d0df92223018b32b4d1fa46e071723d6817e2486d003becc55f00a2646970667358221220f7b67b34b82ea1d327753fcc3acc7b7ed1c589f8695a8f6addcaa5517d98c52064736f6c63430008210033","linkReferences":{}},"methodIdentifiers":{"confirmDelivery(uint256)":"fd84cb97","createDeal(address,uint256)":"f4784c2d","dealCounter()":"217328b6","deals(uint256)":"03988f84","deposit(uint256)":"b6b55f25","getDeal(uint256)":"82fd5bac","getDealStatus(uint256)":"c698f53b","platform()":"4bde38c8","platformBalance()":"62a5dbbc","platformFee()":"26232a2e","refund(uint256)":"278ecde1","updatePlatformFee(uint256)":"aa0b5988","withdrawPlatformFees()":"d0b7830b"},"id":21}